:03000000020800F3
:0C080000787FE4F6D8FD758108020847F7
:03091200010800D9
:10088C00D280D281D285C2B2C2B3C2B4C287308503
:10089C00062085FD12090E2080033081092080FD81
:1008AC002081FA120916E5087008D287C2B2C2B3C9
:1008BC00C2B4E508B40108D287D2B2C2B3C2B4E55F
:1008CC0008B40208D287D2B2D2B3C2B4E508B403DA
:1008DC0008C287D2B2D2B3D2B47FC87E001208EE5F
:0208EC0080ACDE
:03091600050822AF
:04090E00E4F50822E2
:1008EE00E4FDFCC3ED9FEC9E5015E4FBFA0BBB0040
:0F08FE00010ABA04F8BBFBF50DBD00010C80E444
:01090D0022C7
:10080C0002088CE493A3F8E493A34003F68001F26E
:10081C0008DFF48029E493A3F85407240CC8C333ED
:10082C00C4540F4420C8834004F456800146F6DFBC
:10083C00E4800B0102040810204080900912E47E31
:10084C00019360BCA3FF543F30E509541FFEE493B1
:10085C00A360010ECF54C025E060A840B8E493A378
:10086C00FAE493A3F8E493A3C8C582C8CAC583CAA3
:10087C00F0A3C8C582C8CAC583CADFE9DEE780BE5B
:0109150000E1
:00000001FF
